:0200000480205A
:1000000000001020C1072080C7F90000C5F90000DA
:10001000C5F90000C5F90000C5F90000C5F90000E8
:10002000000000000000000000000000491D00006A
:10003000C7F90000000000001F1E00002F1E000076
:10004000C7F90000C7F90000C7F90000C7F90000B0
:10005000C7F90000C7F90000C7F90000C7F90000A0
:10006000C7F90000C7F90000C7F90000C7F9000090
:10007000C7F90000C7F90000C7F90000C7F9000080
:10008000C7F90000C7F90000C7F90000C7F9000070
:10009000C7F90000C7F90000C7F90000C7F9000060
:1000A000C7F90000C7F90000C7F90000C7F9000050
:1000B000C7F90000C7F90000C7F90000C7F9000040
:1000C000C7F90000C7F90000C7F90000C7F9000030
:1000D000C7F9000001FD0000EDFC0000C7F90000B9
:1000E000C7F90000C7F90000C7F90000C7F9000010
:1000F000C7F90000C7F90000C7F90000C7F9000000
:10010000C7F90000C7F90000C7F90000C7F90000EF
:10011000C7F90000C7F90000C7F90000C7F90000DF
:10012000C7F90000C7F90000C7F90000C7F90000CF
:10013000C7F90000C7F90000C7F90000C7F90000BF
:10014000C7F90000C7F90000C7F90000C7F90000AF
:10015000C7F90000C7F90000C7F90000C7F900009F
:10016000C7F90000C7F90000C7F90000C7F900008F
:10017000C7F90000C7F90000C7F90000C7F900007F
:10018000C7F90000C7F90000C7F90000C7F900006F
:10019000C7F90000C7F90000C7F90000C7F900005F
:1001A000C7F90000C7F90000C7F90000C7F900004F
:1001B000C7F90000C7F90000C7F90000C7F900003F
:1001C000C7F90000C7F90000C7F90000C7F900002F
:1001D000C7F90000C7F90000C7F90000C7F900001F
:1001E000C7F90000C7F90000C7F90000C7F900000F
:1001F000C7F90000C7F90000C7F90000C7F90000FF
:10020000C7F90000C7F90000C7F90000C7F90000EE
:10021000C7F90000C7F90000C7F90000C7F90000DE
:10022000C7F90000C7F90000C7F90000C7F90000CE
:1002300013AE000071AF0000CDB0000029B2000085
:1002400085B30000E1B400003DB6000099B700009E
:10025000C7F90000C7F90000C7F90000C7F900009E
:10026000C7F90000C7F90000C7F90000C7F900008E
:10027000C7F90000C7F90000C7F90000C7F900007E
:10028000C7F90000C7F90000C7F90000C7F900006E
:10029000C7F90000C7F90000C7F90000C7F900005E
:1002A000C7F90000C7F90000C7F90000C7F900004E
:1002B000C7F90000C7F90000C7F90000C7F900003E
:1002C000C7F90000C7F90000C7F90000C7F900002E
:1002D000C7F90000C7F90000C7F90000C7F900001E
:1002E000C7F90000C7F90000C7F90000D1EF00000E
:1002F000E5EF0000F9EF00000DF0000021F0000034
:1003000035F0000049F000005DF0000025CF00004E
:1003100039CF00004DCF000061CF000075CF000045
:1003200089CF00009DCF0000B1CF000021D1000097
:1003300035D1000049D100005DD1000071D100002D
:1003400085D1000099D10000ADD100001DD300007F
:1003500031D3000045D3000059D300006DD3000015
:1003600081D3000095D30000A9D3000019D5000067
:100370002DD5000041D5000055D5000069D50000FD
:100380007DD5000091D50000A5D5000015D700004F
:1003900029D700003DD7000051D7000065D70000E5
:1003A00079D700008DD70000A1D7000015D9000033
:1003B00029D900003DD9000051D9000065D90000BD
:1003C00079D900008DD90000A1D9000015DB00000B
:1003D00029DB00003DDB000051DB000065DB000095
:1003E00079DB00008DDB0000A1DB000011DD0000E7
:1003F00025DD000039DD00004DDD000061DD00007D
:1004000075DD000089DD00009DDD00000DDF0000CE
:1004100021DF000035DF000049DF00005DDF000064
:1004200071DF000085DF000099DF000009E10000B6
:100430001DE1000031E1000045E1000059E100004C
:100440006DE1000081E1000095E1000005E300009E
:1004500019E300002DE3000041E3000055E3000034
:1004600069E300007DE3000091E3000001E5000086
:1004700015E5000029E500003DE5000051E500001C
:1004800065E5000079E500008DE50000FDE600006F
:1004900011E7000025E7000039E700004DE7000004
:1004A00061E7000075E7000089E70000F9E8000057
:1004B0000DE9000021E9000035E9000049E90000EC
:1004C0005DE9000071E9000085E90000F5EA00003F
:1004D00009EB00001DEB000031EB000045EB0000D4
:1004E00059EB00006DEB000081EB0000C7F9000044
:1004F000C7F90000C7F90000C7F90000C7F90000FC
:10050000C7F90000C7F90000C7F90000C7F90000EB
:10051000C7F90000C7F90000C7F90000C7F90000DB
:10052000C7F90000C7F90000C7F90000C7F90000CB
:1007B000F1EC000061EE0000C7F90000C7F900008D
:1007C00029482A4980F30A8881F3088800F001F853
:1007D00000BF00B585B000F075FA1F4B039319E018
:1007E000002302930EE0039B1A68029B9B001A44AD
:1007F000039B5968029B9B000B4412681A60029B82
:1008000001330293039B9B68029A9A42EBD3039BAA
:100810000C330393039B114A9342E1D3104B019392
:1008200014E00023009309E0019B1A68009B9B00E1
:10083000134400221A60009B01330093019B5B6804
:10084000009A9A42F0D3019B08330193019B054A19
:100850009342E6D300F010FEA0142080B81420804C
:10086000C0142080D014208000E00F200000102051
:10087000024B4FF080525A6000BF704700ED00E01D
:1008800010B483B001900B46ADF80230019BBDF867
:100890000220D3E85F1F8A4202D8BFF32F8F04E003
:1008A000481CC3E8540F04B1F3E78CB22346184642
:1008B00003B05DF8044B704710B483B001900B4651
:1008C000ADF80230019BBDF80220D3E85F1F481C41
:1008D000824200D80020C3E8540F04B1F5E78CB27F
:1008E0002346184603B05DF8044B704710B483B03C
:1008F0000190019BD3E85F2F12B9BFF32F8F04E063
:10090000511EC3E8501F00B1F4E794B223461846C5
:1009100003B05DF8044B704782B00190019B18460C
:1009200002B0704782B00190019B184602B0704738
:1009300082B00190019B184602B0704782B00190CE
:10094000019B184602B0704782B00190019B184687
:1009500002B0704782B00190019B184602B0704708
:10096000014B1B7A184670470400002000B587B081
:100970000190154BB3F85430ADF81230BDF8123079
:1009800019461248FFF77CFF03461A46BDF812309D
:10099000934211D9BDF8123019460D48FFF78CFF6C
:1009A00003460393084BDA6D039B9B001344019AA3
:1009B0001A600123059301E000230593059B184667
:1009C00007B05DF804FB00BF040000205A000020BF
:1009D0005C00002000B585B0124BB3F85430ADF880
:1009E0000A301148FFF782FF0346002B12D0BDF8F2
:1009F0000A3019460D48FFF75FFF03460193094B84
:100A0000DA6D019B9B0013441B681846FFF784FFB7
:100A1000039001E000230393039B184605B05DF8A3
:100A200004FB00BF040000205A0000205E000020EC
:100A300000B583B000F014FD314BDB680133304A60
:100A4000D36000F029FD002000F022FD2C4B1B6D2F
:100A5000002B02D02A4B1B6D9847294B1B6C002B97
:100A60004AD0274B9B690193254BDB6B019A9A4235
:100A70000AD0234A019BD363019BDB69002B03D17E
:100A80001F4B1A6C019BDA61019BDB69002B04D0C0
:100A9000019BDB695A1E019BDA61019BDB69002B1C
:100AA0002AD1FFF75DFF0346022B25D1144B5B6A69
:100AB0000193019B002B1FD0019B93F92020104B29
:100AC000DB6B93F920309A4216D1019800F0DCFCE0
:100AD0000B4BDB6B184600F0C7FC094BDB6B184671
:100AE00000F0B6FC019800F0B7FC054A019BD36307
:100AF000034B1A6C019BDA6100BF03B05DF804FB85
:100B00000400002010B582B0FFF764FF0190019B44
:100B1000002B48D0019B1B78F13B082B41D801A248
:100B200052F823F0490B2080A30B20805B0B208020
:100B3000A30B2080A30B20806D0B20807F0B2080D7
:100B4000A30B2080910B20801A4B1C6E0198FFF79D
:100B5000E9FE03461846A04724E0164B5C6E019858
:100B6000FFF7E6FE03461846A0471BE0114B9C6EBC
:100B70000198FFF7E3FE03461846A04712E00D4B2D
:100B8000DC6E0198FFF7E0FE03461846A04709E037
:100B9000084B1C6F0198FFF7DDFE03461846A0477F
:100BA00000E000BFB0E700BF002000F071FC00BF14
:100BB00002B010BD0400002000B583B00190019880
:100BC000FFF7D4FE0346002B0BD00A4B5B7ADBB257
:100BD000002B02D1FFF74CFE07E0064B01229A7270
:100BE00003E00199022000F04BFC00BF03B05DF868
:100BF00004FB00BF04000020024B034A1A6000BF40
:100C0000704700BFF80800200084D717014B1B680D
:100C100018467047F808002000BF704700B585B03F
:100C2000264B1B6803F48033002B30D1244B002269
:100C3000C3F88420BFF34F8F00BF214BD3F880301F
:100C40000393039B5B0BC3F30E030293039BDB082D
:100C5000C3F309030193029B5A0143F6E073134067
:100C6000019A920716491343C1F86C32019B5A1E30
:100C70000192002BEFD1029B5A1E0292002BE5D16C
:100C8000BFF34F8F00BFBFF36F8F00BF00BFBFF335
:100C90004F8F00BFBFF36F8F00BF094B0022C3F817
:100CA0005022BFF34F8F00BFBFF36F8F00BF00BF55
:100CB00000F0E0F800BF05B05DF804FB00E001E0E3
:100CC00000ED00E008B51D4B1D4A9A601B4B5B6AA6
:100CD0001A4A43F470235362FFF79EFF194B1B68B7
:100CE000184A23F480731360144BD3F88830134AE6
:100CF00043F47003C2F88830134B40F2E5225A6087
:100D000000F036FB0D4B5B690C4A43F43023536112
:100D10004FF0E0239B684FF0E02223F02003936024
:100D2000BFF34F8F00BFBFF36F8F00BF00F074FBA6
:100D3000064B074A1A6000BF08BD00BF00ED00E087
:100D4000000020800040601A00E001E0F808002068
:100D50000084D717014B1B6818467047FC08002019
:100D6000014B1B681846704700090020014B1B68A7
:100D70001846704704090020014B1B68184670474D
:100D800008090020014B1B68184670470C09002019
:100D9000014B1B6818467047100900200000000036
:100DA0004FF0D1531B684FF0D15243F00103136051
:100DB00000BF70472DE9F04387B0019028490968CA
:100DC0000391002104910199B1F1C86F02D94FF04C
:100DD000FF333AE0234909682348814206D1019B49
:100DE000224AA2FB0323DB08059329E00199002096
:100DF0000E4607461B49096800200C46054604FBC1
:100E000007F006FB05F10144A6FB042319440B4639
:100E1000174912EB010843F100090FA3D3E900239E
:100E20004046494600F024FB02460B461346059314
:100E300006E00B4B1B680293029A039BD31A0493A0
:100E4000049A059B9A42F4D90023184607B0BDE8DE
:100E5000F08300BFAFF3008000CA9A3B000000009F
:100E60000000211A0809002000E1F505CDCCCCCC0A
:100E7000FFC99A3B4FF0D2531B684FF0D25243F058
:100E80000103136000BF704786B0019000230593F3
:100E9000019BB3F5C83F02D94FF0FF331AE00F4B67
:100EA0001B680493019BDB0303F5742303F23F23C8
:100EB0000B4AA2FB03239B0C039306E0074B1B6822
:100EC0000293029A049BD31A0593059A039B9A42B4
:100ED000F4D90023184606B0704700BF0000411A3D
:100EE00083DE1B438EB0684B1B6803F00F0308932F
:100EF000089B0533012202FA03F30793634B1B6837
:100F000003F00F030893089B0533012202FA03F351
:100F1000069300230993AEE05D49099A13465B00EE
:100F200013449B000B4408331B78012B1FD15849F5
:100F3000099A13465B0013449B000B441B6803F1A2
:100F40006042069BB2FBF3F30D935149099A134695
:100F50005B0013449B000B4404331B6803F16042A5
:100F6000069BB2FBF3F30C934A4B0A931AE04849F1
:100F7000099A13465B0013449B000B441A68079BB5
:100F8000B2FBF3F30D934249099A13465B001344F5
:100F90009B000B4404331A68079BB2FBF3F30C93DA
:100FA0003D4B0A930D9B5B090B930C9B5B090593CF
:100FB0000D9B03F01F0304930C9B03F01F0303938B
:100FC0000B9A059B9A421CD1039BC3F11F034FF060
:100FD000FF32DA404FF0FF31049B01FA03F3134074
:100FE00002930B9B9A000A9B134410331A680B9BC5
:100FF00099000A9B0B4410331946029B13430B6064
:1010000036E04FF0FF32049B02FA03F30293039B96
:10101000C3F11F034FF0FF3222FA03F301930B9B3E
:101020009A000A9B134410331A46029B13600BE08C
:101030000B9B01330B930B9B9A000A9B13441033B9
:101040001A464FF0FF331360059B013B0B9A9A42FF
:10105000EED1059B9A000A9B134410331A68059B36
:1010600099000A9B0B4410331946019B13430B60F4
:10107000099B01330993099B002B3FF44DAF00BF3F
:1010800000BF0EB0704700BF04E501E004E601E0D8
:101090009C10208000E601E000E501E00000012056
:1010A000FFFF00200100000082B00190BFF35F8FBE
:1010B00000BF0A4A019B43F001035360084B5B6A7F
:1010C000074A43F480335362BFF34F8F00BFBFF32F
:1010D0006F8F00BF00BF02B0704700BF90ED00E00F
:1010E00000ED00E0BFF35F8F00BF0A4B5B6A094A67
:1010F00023F480335362084B5B68074A23F00103F3
:101100005360BFF34F8F00BFBFF36F8F00BF00BFAF
:10111000704700BF00ED00E090ED00E086B0019068
:101120000B468DF8033013468DF802309DF80330DE
:101130009B088DF817309DF8033003F00303DB00A4
:101140000493FF22049B02FA03F303939DF81730E4
:10115000012B19D89DF81720019B0C3253F822203F
:10116000039BDB4302EA03019DF80220049B02FA81
:1011700003F31A46039B13409DF817201943019B64
:101180000C3243F8221000E000BF06B0704700B5F3
:1011900083B003460A468DF8073013468DF80630B3
:1011A0009DF806209DF8073019460348FFF7B6FF63
:1011B00000BF03B05DF804FB90ED00E082B0019049
:1011C0000091019B009A9A60019B00221A6100BF66
:1011D00002B0704700B583B0019001990348FFF752
:1011E000EDFF00BF03B05DF804FB00BF90ED00E031
:1011F00086B0039002910192002305930CE0059BB9
:101200009B00029A1A44059B9B0003990B441268A9
:101210001A60059B01330593059A019B9A42EED310
:1012200000BF00BF06B0704700B589B003900291BF
:101230000192009302230593009B012B0AD1039B8B
:10124000029A9A60039B0C330199059A1846FFF79E
:10125000CFFF41E0029B23F003030793029B03F0BF
:1012600003030693039B079A9A6022E0069BC3F14F
:1012700004030493039B03F10C02069BDB00D018CC
:101280000199049B059A02FB03F31A46FFF7B0FF8E
:10129000049BDB00019A13440193009A049BD31A28
:1012A000009300230693079B04330793039B079A3D
:1012B0009A60069A009B1344042BD7D8039B03F132
:1012C0000C02069BDB00D0180199009B059A02FBDB
:1012D00003F31A46FFF78CFF00BF09B05DF804FB6B
:1012E00000B585B0039002910192019B029A039987
:1012F0000348FFF799FF00BF05B05DF804FB00BF8E
:1013000090ED00E008B522210020FFF740FF042106
:101310000120FFF73CFFFF210220FFF738FFAA2141
:101320000320FFF734FF092202490020FFF7D8FF0E
:1013300000BF08BD9813208000B585B00B4B029309
:10134000029B1B681B0A01930023039305E003988B
:10135000FFF740FF039B01330393039A019B9A42DB
:10136000F5D300BF00BF05B05DF804FB90ED00E0D1
:1013700008B5084B5B6803F00103002B01D0FFF7B1
:10138000B1FEFFF7D9FFFFF7BDFF0620FFF78CFE88
:1013900000BF08BD90ED00E002000002E1FF7F0207
:1013A0000300001AE3FFFF1A12000058E5FF03587C
:1013B00012008058E5FF835806000080E7FF3F8059
:1013C00003004080E3FF578003000083E3FFFF83B7
:1013D000020000A0E5FFFFBF060000C0E7FFFFDF3F
:1013E0000A4B00229A600A4B084A23F01F03D3607D
:1013F000084B013B23F01F03044A43F00103136130
:10140000024B01221A6000BF704700BFD0ED00E020
:10141000000001200000012000B583B000230193EB
:10142000084B094A93425FEA1F930193019B002BEB
:1014300004D1FFF7D5FFFFF755FD00E000BF03B073
:101440005DF804FB00000120000001200000000006
:101450005FF800F04D2C00005FF800F0757A000096
:101460005FF800F0D91C00005FF800F0077700007B
:101470005FF800F0090F01005FF800F0990000002C
:101480005FF800F09F3A00005FF800F093760000EC
:101490005FF800F0B17A00005FF800F0917800008A
:1014A000A03A21800000002060020000D0142080BB
:1014B000000000007449000000000000000000006F
:1014C00080090020163B0000000000020000000020
:1014D0000348044B834202D0034B03B118477047C3
:1014E000800900208009002000000000064B074909
:1014F000C91A891048BF0131491003D0044B0BB100
:1015000001481847704700BF80090020800900206B
:101510000000000010B5064C237843B9FFF7D8FF50
:10152000044B13B10448AFF300800123237010BDB6
:101530008009002000000000684C218008B5054BA0
:101540001BB105490548AFF30080BDE80840FFF72F
:10155000CDBF00BF0000000084090020684C21803E
:10156000A3F5803A704700BF174B002B08BF134B01
:101570009D46FFF7F5FF00218B460F461348144A9E
:10158000121A11F053FA0E4B002B00D098470D4B56
:10159000002B00D098470020002104000D000D48CA
:1015A000002802D00C48AFF3008011F0C7F82000EB
:1015B000290000F013F811F0A9F800BF000008009E
:1015C00000000000493F00000000102080090020BA
:1015D000D8F50020000000000000000008B50FF062
:1015E00087FC0346002B14BF01230023DBB2002B32
:1015F00000D0FEE712F038FA0C4811F05FFC00F062
:1016000087F90B4811F05AFC03F0C2FC03F01CFDF3
:101610000346012B0CBF01230023DBB2002B01D0BA
:1016200003F034FD034811F049FCFEE744442180F7
:1016300084442180C044218000B58BB00390029186
:10164000029B1B680C331B68029898470990099B02
:101650009B000893029800F01FFA0790079BB3F1D4
:10166000FF3F0CD1029B1B6808331B680298984708
:101670000146089B099A124811F084F81CE0079B68
:101680009B000693069A089B9A4203D8089A069BE9
:10169000D31A00E000230593029B1B6808331B68E4
:1016A000029898470146079B0193069B0093089B6D
:1016B000059A044811F066F800BF0BB05DF804FB12
:1016C000504621808846218010B58CB001904FF49F
:1016D000FA7001F09DFE7C4811F0F0FB7B4BD3E8E3
:1016E000AF3F03F00103002B0CBF01230023DBB24B
:1016F000002B15D0754810F05EFE0346002B14BF7A
:1017000001230023DBB2002B0AD0714800F053FD07
:10171000704A71496E4810F047FE6C4810F057FE51
:101720006E4BD3E8AF3F03F00103002B0CBF012346
:101730000023DBB2002B15D0684810F03CFE0346B6
:10174000002B14BF01230023DBB2002B0AD0644816
:1017500000F031FD5F4A6049614810F025FE5F48A6
:1017600010F035FE5F4BD3E8AF3F03F00103002BD1
:101770000CBF01230023DBB2002B1BD0594810F013
:101780001AFE0346002B14BF01230023DBB2002BFB
:1017900010D04F4800F0F6FD03460122194652488A
:1017A00000F0E4FA4B4A51494F4810F0FDFD4D4816
:1017B00010F00DFE4E4BD3E8AF3F03F00103002BBA
:1017C0000CBF01230023DBB2002B1BD0484810F0D4
:1017D000F2FD0346002B14BF01230023DBB2002BD4
:1017E00010D03F4800F0CEFD034602221946414882
:1017F00000F0BCFA374A3D493E4810F0D5FD3C4860
:1018000010F0E5FD3C4BD3E8AF3F03F00103002BA4
:101810000CBF01230023DBB2002B1FD0364810F091
:10182000CAFD0346002B14BF01230023DBB2002BAB
:1018300014D0274800F0B4FD0446294800F0B0FD5C
:1018400003461A4621462D4800F02CFB214A2C491C
:101850002A4810F0A9FD284810F0B9FD03A8274B2D
:10186000244A214900F0AAFD06AB03AA07CA83E86F
:10187000070006AB08220121184600F0AFFD214801
:1018800011F01CFB40F6B83001F0C2FD1E4B1B6886
:10189000002B11D01C4B1B68184608F031FE034684
:1018A0009B080B930B9B9B000A934FF480530B9A5E
:1018B0000A99164810F066FF09AA03AB11461846AC
:1018C00000F05CF8DEE700BFC8462180080A00206F
:1018D000AC09002000000020FF0C0000680A002076
:1018E0000C0A0020D8120020700A0020190D0000F8
:1018F000481B0020E0120020B82B0020501B0020C5
:101900005D0D0000044721809C090020484721808C
:1019100000B58BB001AB24220021184611F086F8E7
:10192000104B0193104B05934FF4804306930F4BDC
:101930000393502304930923079301AB1A46002114
:101940000B4808F0DDFC03460A4A1360094B1B688C
:10195000002B02D1084811F0B1FA00BF0BB05DF8BE
:1019600004FB00BF8C472180C02B0020C06B0020EF
:10197000F90100009C0900209447218000B583B044
:1019800001900091009800F009F80346194601986B
:1019900000F00AF800BF03B05DF804FB82B00190CC
:1019A000019B184602B0704700B583B001900091CA
:1019B000019B184600F0E4FD034619460098FFF726
:1019C0003BFE0098FFF7EAFF03461946019800F036
:1019D00004F800BF03B05DF804FB00B583B00190CC
:1019E0000091019B184600F081FE034619460098BD
:1019F000FFF722FE0098FFF7D1FF03461946019832
:101A000000F004F800BF03B05DF804FB00B583B03C
:101A100001900091019B184600F021FF03461946F2
:101A20000098FFF709FE0098FFF7B8FF0346194634
:101A3000019800F004F800BF03B05DF804FB82B029
:101A40000190009100BF02B0704700BF82B00190CA
:101A5000014B184602B07047E044218082B00190EB
:101A60004FF0FF33184602B0704782B001900091EA
:101A7000019B019A5A60019B009A9A60019B043372
:101A8000184602B0704782B001900091019B009A05
:101A9000DA6000BF02B0704700B583B00190019BCF
:101AA000DB68002B02D14FF0FF3306E0019BDB68BF
:101AB000184608F025FD03469B08184603B05DF85C
:101AC00004FB82B0019000BF02B0704700B585B042
:101AD00001900091019B1B6818331B68019898477F
:101AE0000390039BB3F1FF3F01D0039B00E0009BF9
:101AF000184605B05DF804FB84B0EFF31183019341
:101B0000019B039380230293029B83F3128800BFFF
:101B1000039B184604B0704784B00190019B039367
:101B2000039B83F3118800BF00BF04B0704782B0ED
:101B30000190019B00229A62019B00221A6300BF60
:101B400002B0704782B00190019B5B68184602B0FA
:101B5000704782B00190019B9B6A184602B07047A3
:101B600082B00190019BDB6A184602B0704782B0D8
:101B70000190019B1B6B184602B0704782B0019028
:101B8000019B9B68184602B0704782B00190019B90
:101B9000DB68184602B0704782B00190019B9B69D8
:101BA000184602B0704782B00190019BDB6918466D
:101BB00002B0704782B00190034A019B1A60019BFA
:101BC000184602B0704700BF7449218082B001906E
:101BD000034A019B1A60019B184602B0704700BF80
:101BE0007449218000B583B001900198FFF7EEFFA2
:101BF0000421019810F0DDFB019B184603B05DF84D
:101C000004FB000000B585B003900291019200939F
:101C1000039B1846FFF7CEFF084A039B1A60039BFD
:101C2000029A5A60039B019A9A60039B009ADA60B9
:101C3000039B184605B05DF804FB00BFE44B218010
:101C400082B001900091019B009A9A6000BF02B09F
:101C50007047000000B585B0039002910192009397
:101C6000039B1846FFF7A6FF084A039B1A60039BD5
:101C7000029A5A60039B019A9A60039B009ADA6069
:101C8000039B184605B05DF804FB00BFC84B2180DC
:101C900082B001900091019B009A9A6000BF02B04F
:101CA0007047000082B00190074A019B1A60019BB7
:101CB00000225A60019B00229A60019B0022DA6098
:101CC000019B184602B070479049218082B0019074
:101CD000034A019B1A60019B184602B0704700BF7F
:101CE0009049218000B583B001900198FFF7EEFF85
:101CF0001021019810F05DFB019B184603B05DF8C0
:101D000004FB000000B583B00190019B1846FFF76B
:101D1000C9FF044A019B1A60019B184603B05DF895
:101D200004FB00BF4849218000B583B00190064AFA
:101D3000019B1A60019B1846FFF7C8FF019B1846DC
:101D400003B05DF804FB00BF4849218000B583B0B3
:101D500001900198FFF7E8FF4FF40661019810F039
:101D600028FB019B184603B05DF804FB00B585B065
:101D7000039002910192039B1846FFF7C3FF084AA4
:101D8000039B1A60039B029AC3F86028039B019A85
:101D9000C3F86428039B184605B05DF804FB00BF38
:101DA0001C49218000B583B00190019BD3F86438B1
:101DB000044A0C21044811F001FA034B184603B001
:101DC0005DF804FBEC442180A009002000B587B039
:101DD0000190019BD3F864381946164810F0D2FCE4
:101DE0000023059310E0019BD3F864380393059B0F
:101DF0000493019B03F5066303AA1146184600F0FD
:101E000037FA059B01330593059B42F20F7293420B
:101E1000E9DD019BD3F864381946074810F0B2FC9D
:101E200008F008FB0346184608F008FC00BF07B09E
:101E30005DF804FBF44421801845218000B583B08F
:101E40000190019B1846FFF72DFF044A019B1A6081
:101E5000019B184603B05DF804FB00BFF0482180E9
:101E600000B583B00190064A019B1A60019B184699
:101E7000FFF72CFF019B184603B05DF804FB00BF81
:101E8000F048218000B583B001900198FFF7E8FF8A
:101E90004FF48351019810F08CFA019B184603B05F
:101EA0005DF804FB00B585B0039002910192039B9D
:101EB0001846FFF7C3FF0A4A039B1A60039B03F50A
:101EC00080531A46029B1366039B03F580531A4600
:101ED000019B5366039B184605B05DF804FB00BFE9
:101EE000C448218082B00190014B184602B070476F
:101EF0003045218000B583B00190019B44331846E2
:101F00000FF0A1FF019B184603B05DF804FB000031
:101F100000B5ABB003900A2001F07AFA474810F000
:101F2000CDFF002329930023289300232793002328
:101F30008DF89B30039B03F5835121AB1FAA1846F4
:101F400000F0A8F9039B03F58353043323A81DAACB
:101F5000194600F09FF905A8249B0093239B21AA12
:101F600006CA00F0A5F94AE005AB184610F099F949
:101F70002590259B002B13D11F9B012B03D1209B68
:101F8000289A9A4208D01F9A209B28992C4810F032
:101F9000F9FB01238DF89B30289B0133289315E032
:101FA000259B012B12D11D9B022B03D11E9B279A2F
:101FB0009A4208D01D9A1E9B2799224810F0E2FBF6
:101FC00001238DF89B30279B01332793299B0133F5
:101FD0002993299A1C4B83FB02139911D317CB1A0F
:101FE0004FF47A7101FB03F3D31A002B07D129991F
:101FF000164810F0C7FB9DF89B30002B05D1299B9C
:1020000044F61F629342AFDD00E000BF9DF89B30B5
:1020100083F00103DBB2002B03D029990C4810F0A8
:10202000B1FB08F007FA0346184608F007FB05ABBA
:102030001846FFF75FFF2BB05DF804FB3C4521809D
:1020400070452180B0452180D34D6210F04521803C
:102050001846218082B00190034A019B1A60019BBF
:10206000184602B0704700BFA448218000B583B075
:1020700001900198FFF7EEFF0421019810F099F903
:10208000019B184603B05DF804FB000000B583B067
:102090000190064A019B1A60019B1846FFF7DAFF80
:1020A000019B184603B05DF804FB00BF7048218017
:1020B00000B583B001900198FFF7E8FF0421019873
:1020C00010F077F9019B184603B05DF804FB00009F
:1020D00000B583B00190064A019B1A60019B184627
:1020E000FFF774FD019B184603B05DF804FB00BFC9
:1020F000E44B218000B583B001900198FFF7E8FF21
:102100001021019810F055F9019B184603B05DF8B5
:1021100004FB000000B583B00190064A019B1A60E1
:10212000019B1846FFF752FD019B184603B05DF86E
:1021300004FB00BFC84B218000B583B0019001981B
:10214000FFF7E8FF1021019810F033F9019B1846C2
:1021500003B05DF804FB000000B583B001900D4AA8
:10216000019B1A60019B4C331846FFF7D3FF019B7C
:102170003C331846FFF7ACFF019B043318460FF0C1
:10218000CFFA019B1846FFF781FF019B184603B069
:102190005DF804FB3C48218000B583B001900198B4
:1021A000FFF7DAFF5C21019810F003F9019B184654
:1021B00003B05DF804FB00B583B00190019B1846A5
:1021C00000F0B8F8019B184603B05DF804FB00B5B9
:1021D00083B00190019B1846FFF7BEFF019B184694
:1021E00003B05DF804FB000000B583B00190064A1F
:1021F000019B1A60019B1846FFF796FD019B18464C
:1022000003B05DF804FB00BF1C49218000B583B01A
:1022100001900198FFF7E8FF40F66801019810F07F
:10222000C8F8019B184603B05DF804FB00B583B005
:102230000190064A019B1A60019B1846FFF710FEA9
:10224000019B184603B05DF804FB00BFC448218021
:1022500000B583B001900198FFF7E8FF41F26801F3
:10226000019810F0A6F8019B184603B05DF804FB36
:1022700000B583B001900091019B1B681B680C3373
:102280001B68019A126800991046984700BF03B076
:102290005DF804FB00B585B0039002910192019AAC
:1022A0000299039800F0AFF8039805B05DF804FBBD
:1022B00082B000B585B0039001A880E806000793BE
:1022C000039B00221A64039B443318460FF0AAFDB7
:1022D000039B0022DA6501AB1946039800F0A1F8D0
:1022E00007AB1946039800F09CF8039B184605B00D
:1022F0005DF804EB02B0704782B00190034A019B85
:102300001A60019B184602B0704700BFA4482180A4
:1023100000B583B00190019B1846FFF7EDFF044A1A
:10232000019B1A60019B184603B05DF804FB00BFD7
:102330007048218000B583B00190019B1846FFF7DB
:10234000E7FF0F4A019B1A60019B043318460FF008
:10235000BBF9019B03F13C00019B191D08230022DE
:10236000FFF750FC019B03F14C00019B191D082352
:102370000022FFF76FFC019B184603B05DF804FBD9
:102380003C48218000B585B00190019A03AB11460D
:10239000184600F05DF8039B184605B05DF804FB95
:1023A00000B585B00190019A03AB1146184600F0C4
:1023B00059F8039B184605B05DF804FB00B585B0DD
:1023C0000390029101920093009B019A0299039855
:1023D00000F052F8039805B05DF804FB00B585B035
:1023E000039002910192029B012B04D10199039861
:1023F00000F053F803E00199039800F05BF800BF88
:1024000005B05DF804FB84B0039002910192039B38
:10241000029A1A60039B019A5A60039B184604B003
:10242000704700B583B001900091019B1B6C0F2B8E
:102430000AD8009800F070F8019B1B6C591C019A97
:102440001164019A42F8230000BF03B05DF804FB59
:1024500082B001900091019B009A1A60019B18467E
:1024600002B0704782B001900091019B009A1A60FF
:10247000019B184602B0704700B585B003900291E9
:10248000019200930398009B019A029900F054F87E
:10249000039B184605B05DF804FB00B583B00190BE
:1024A0000091009A0021019800F057F800BF03B096
:1024B0005DF804FB00B589B00190009102AB0022E9
:1024C0001A605A609A60DA60124B049310230593E5
:1024D00002AB1A460021032006F025F80690009A68
:1024E0000699019800F039F80023079307E04FF0B0
:1024F000FF31069806F06CF8079B01330793079BA2
:10250000022BF4D9069806F0D7F800BF09B05DF8A1
:1025100004FB00BF106C002000B583B00190019B4C
:102520001A68019B5B681946104600F035F80346AF
:10253000184603B05DF804FB00B585B00390029126
:10254000019200930398009B019A029900F037F8DA
:10255000039B184605B05DF804FB00B585B00390F9
:1025600002910192019A0299039800F03FF8019AB2
:102570000299039800F09CF800BF05B05DF804FBD9
:1025800000B583B00190019B184600F0A4F8034603
:10259000184603B05DF804FB00B583B001900091CC
:1025A000019B1B681B6824331B68019A1268009901
:1025B000104698470346184603B05DF804FB00B583
:1025C00085B00390029101920093039B009A0199B8
:1025D000184600F097F8039B08330299184600F05C
:1025E000A6F8039B184605B05DF804FB00B593B050
:1025F000039002910192039B1846FFF7C1FF034627
:10260000119302991198FFF730FA109001991198DF
:10261000FFF75CFA0F9005AB24220021184610F05A
:1026200005FA119B1B6808331B68119898470346ED
:102630000593119B1B6810331B681198984703463C
:102640000993119B1B680C331B681198984703462C
:102650009B000A93119B1B6814331B6811989847C1
:1026600003460793502308930F9B0B9305AB1A4621
:1026700010990D4807F044FE0E900E991198FFF73F
:1026800002FA0E9B002B0AD1119B1B6808331B68B2
:102690001198984703461946044810F073F800BF94
:1026A00013B05DF804FB00BFA70E0100BC472180FA
:1026B00000B585B0039002910192019A02990398A6
:1026C00000F040F8019A0299039800F09DF800BFCD
:1026D00005B05DF804FB00B583B00190019800F0EF
:1026E000A6F80346184603B05DF804FB00B583B0B6
:1026F0000190019B184600F0A7F80346184603B066
:102700005DF804FB00B585B0039002910192039B34
:102710000199184600F0AFF8039B0433029918465C
:1027200000F0B7F8039B184605B05DF804FB82B0D3
:1027300001900091019B009A1A60019B184602B01B
:102740007047000000B593B0039002910192039B83
:102750001846FFF7CBFF0346119302991198FFF734
:1027600084F9109001991198FFF7B0F90F9005AB1B
:1027700024220021184610F059F9119B1B680833D8
:102780001B681198984703460593119B1B681033EB
:102790001B681198984703460993119B1B680C33DB
:1027A0001B681198984703469B000A93119B1B686E
:1027B00014331B68119898470346079350230893D6
:1027C0000F9B0B9305AB1A4610990D4807F098FD27
:1027D0000E900E991198FFF756F90E9B002B0AD117
:1027E000119B1B6808331B681198984703461946CC
:1027F00004480FF0C7FF00BF13B05DF804FB00BF33
:10280000A70E0100BC47218000B585B0039002915E
:102810000192019A0299039800F046F8019A0299F0
:10282000039800F0A3F800BF05B05DF804FB00B505
:1028300083B00190019B0833184600F09EF80346D0
:10284000184603B05DF804FB00B583B00190019811
:1028500000F09AF80346184603B05DF804FB00B593
:1028600083B00190019B184600F09BF80346184680
:1028700003B05DF804FB00B583B001900091019BAB
:102880000099184600F098F8019B184603B05DF8CF
:1028900004FB82B001900091019B009A1A60019B99
:1028A000184602B07047000000B593B00390029143
:1028B0000192039B1846FFF7D2FF0346119302993A
:1028C0001198FFF7D2F8109001991198FFF7FEF8D0
:1028D0000F9005AB24220021184610F0A7F8119B99
:1028E0001B6808331B681198984703460593119B92
:1028F0001B6810331B681198984703460993119B76
:102900001B680C331B681198984703469B000A9379
:10291000119B1B6814331B68119898470346079353
:10292000502308930F9B0B9305AB1A4610990D4843
:1029300007F0E6FC0E900E991198FFF7A4F80E9B95
:10294000002B0AD1119B1B6808331B68119898470C
:102950000346194604480FF015FF00BF13B05DF899
:1029600004FB00BFA70E0100BC47218084B0039088
:102970000291019200BF04B0704782B00190019BA8
:102980001B68184602B0704700B583B00190019BE8
:102990000433184600F01AF80346184603B05DF8F1
:1029A00004FB00B583B00190019800F016F80346CF
:1029B000184603B05DF804FB82B001900091019BC2
:1029C000009A1A60019B184602B0704782B00190CD
:1029D000019B1B68184602B0704700B583B0019098
:1029E000019B184600F005F80346184603B05DF851
:1029F00004FB82B00190019B1B68184602B070472F
:102A000010B582B001900091012008F0C1F8019B3F
:102A100004331846FFF796F803464FF0FF31184687
:102A200005F090F90346002B0CBF01230023DBB215
:102A3000002B40D0019B181D0023082200990EF0A6
:102A400094FE0346002B09D0019B04331846FFF780
:102A500079F80346184605F0A3F932E0019B0433E8
:102A60001846FFF799F80346002B14BF01230023F3
:102A7000DBB2002B0FD0019B04331846FFF78CF814
:102A80000446019B04331846FFF78DF803461946A8
:102A900020460FF0CCFA019B04330022009918461F
:102AA0000EF0DFFE019B04331846FFF74BF8034698
:102AB000184605F075F94FF0FF320021012008F0AB
:102AC000ADF802B010BD10B582B0019000910120A8
:102AD00008F05EF8019B04331846FFF733F803460D
:102AE0004FF0FF31184605F02DF90346002B0CBFBF
:102AF00001230023DBB2002B4AD0019B043318468C
:102B0000FFF727F80346002B14BF01230023DBB295
:102B1000002B10D0019B181D0123082200990EF0F4
:102B200024FE019B04331846FFF70CF803461846B1
:102B300005F036F932E0019B04331846FFF71EF822
:102B40000346002B14BF01230023DBB2002B0FD060
:102B5000019B04331846FFF711F80446019B043328
:102B60001846FFF712F80346194620460FF05FFAA1
:102B7000019B04330122009918460EF072FE019B5E
:102B800004331846FEF7DEFF0346184605F008F941
:102B90004FF0FF320021012008F040F802B010BDD4
:102BA00082B00190009100BF02B0704782B00190E6
:102BB00000BF02B0704700B585B0019000238DF8CA
:102BC0000F30019B04331846FEF7BCFF034600217B
:102BD000184605F0B7F80346002B0CBF012300236D
:102BE000DBB2002B2DD0019B04331846FEF7B1FF5A
:102BF0000346002B17D1019B04331846FEF7B0FFA4
:102C00000346002B0FD1019B04331846FEF7B6FF95
:102C10000346002B07D1019B04331846FEF7BCFF87
:102C20000346002B01D0012300E000238DF80F3074
:102C3000019B04331846FEF785FF0346184605F04E
:102C4000AFF89DF80F30184605B05DF804FB00B5ED
:102C500085B0019000238DF80F30019B0433184696
:102C6000FEF770FF03460021184605F06BF8034697
:102C7000002B0CBF01230023DBB2002B1DD0019BD6
:102C800004331846FEF765FF0346002B07D1019B6E
:102C900004331846FEF772FF0346002B01D00123D0
:102CA00000E000238DF80F30019B04331846FEF737
:102CB00049FF0346184605F073F89DF80F30184693
:102CC00005B05DF804FB10B586B0019000910023BB
:102CD0008DF81730FEF710FF0490019B043318465F
:102CE000FEF737FF0346002B14BF01230023DBB29E
:102CF000002B1DD0019B04331846FEF738FF034616
:102D000008220099184610F0A7F9019B04331846D1
:102D1000FEF71FFF0390019B04331846FEF707FFE1
:102D20000121039807F008FF01238DF817301FE0F9
:102D3000019B04331846FEF721FF0346002B14BF06
:102D400001230023DBB2002B12D0019B0433184671
:102D5000FEF714FF0446019B04331846FEF715FFE7
:102D60000346194620460FF062F901238DF817300B
:102D70000498FEF7D1FE9DF81730184606B010BD36
:102D800000B583B001900091019B3C330099184637
:102D9000FEF756FF019B3C33184603B05DF804FB79
:102DA00000B583B001900091019B4C330099184607
:102DB000FEF76EFF019B4C33184603B05DF804FB31
:102DC00082B001904FF48063184602B0704782B021
:102DD0000190019B1033184602B0704782B00190F9
:102DE000019B03F580531033184602B0704782B040
:102DF00001904FF40073184602B0704782B0019002
:102E0000019B1033184602B0704782B00190019BBD
:102E100003F50163184602B0704700000EB400B518
:102E200082B001900FF084FC034658221A604FF0E4
:102E3000FF33184602B05DF804EB03B0704700B5ED
:102E400083B00190019B022B0DD0019B022B0CDC67
:102E5000019B002B03D0019B012B02D005E0002336
:102E60000AE0002308E0002306E00FF061FC0346BF
:102E700058221A604FF0FF33184603B05DF804FB88
:102E800000B589B0039002910192039B022B28D0D8
:102E9000039B022B29DC039B002B03D0039B012BFC
:102EA00003D022E04FF0FF3326E000230693029B7D
:102EB00007930EE0079B5A1C07921B780593059811
:102EC0000EF066F80346B3F1FF3F07D0069B0133CF
:102ED0000693069B019A9A42ECD800E000BF069B3D
:102EE0000AE000230693069B06E00FF021FC034650
:102EF00058221A604FF0FF33184609B05DF804FB02
:102F000000B585B0039002910192039B022B0ED075
:102F1000039B022B0EDC039B002B03D0039B012B96
:102F200002D007E000230CE04FF0FF3309E04FF040
:102F3000FF3306E00FF0FCFB034658221A604FF007
:102F4000FF33184605B05DF804FB82B00190019B89
:102F5000022B0DD0019B022B0CDC019B002B03D01C
:102F6000019B012B02D005E0012304E0012302E0D4
:102F7000012300E00023184602B0704700B585B079
:102F8000039002910192039B022B0FD0039B022B13
:102F90000FDC039B002B03D0039B012B03D008E025
:102FA0004FF0FF330CE04FF0FF3309E04FF0FF33F9
:102FB00006E00FF0BDFB034658221A604FF0FF33C6
:102FC000184605B05DF804FB00B583B00190009190
:102FD000019B022B15D0019B022B18DC019B002BBF
:102FE00003D0019B012B06D011E0009B4FF400524F
:102FF0005A60002312E0009B4FF400525A600023F5
:103000000CE0009B4FF400525A60002306E00FF0E2
:103010008FFB034658221A604FF0FF33184603B067
:103020005DF804FB00B585B00390029101920FF0AA
:103030007FFB034658221A604FF0FF33184605B055
:103040005DF804FB08B50FF073FB034658221A60C5
:103050004FF0FF33184608BD82B00190FEE700B57F
:1030600083B0019000910FF063FB034658221A6071
:103070004FF0FF33184603B05DF804FB00231846F9
:10308000704700B583B001900FF052FB0346582201
:103090001A604FF0FF33184603B05DF804FB84B0AC
:1030A00001900091094B1B68002B02D1074B084A85
:1030B0001A60064B1B680393044B1A68009B134469
:1030C000024A1360039B184604B07047206C00202E
:1030D0000040012084B001900091019B002B02D19F
:1030E0004FF0FF331EE0114B1A68019BB2FBF3F364
:1030F000013B0393039BB3F1807F02D34FF0FF3377
:1031000010E00B4BFF2283F823200A4B06221A60A3
:10311000084A039B5360074B00229A60064B00222B
:103120001A700023184604B0704700BFF80800204A
:1031300000ED00E010E000E0246C0020094B1B785B
:10314000002B06D0074B00221A70074B4FF080620D
:103150005A60064B1B68054A43F00103136000BF29
:10316000704700BF246C002000ED00E010E000E09C
:103170000A4B1B68094A23F001031360084B5B6884
:1031800003F08063002B06D0054B4FF000725A60AD
:10319000044B01221A7000BF704700BF10E000E02E
:1031A00000ED00E0246C0020014B1B6800BF70475D
:1031B00010E000E04FF0FF3318467047014B1B68EA
:1031C00018467047F8080020024B5B680133184628
:1031D000704700BF10E000E082B0094B9B6800938D
:1031E000009B002B06D0064B5A68009BD31A013374
:1031F000019301E000230193019B184602B0704740
:1032000010E000E0034B5B689B0E03F001031846DF
:10321000704700BF00ED00E01EF0040F0CBFEFF39D
:103220000880EFF30980816911F8021C002950D150
:1032300001B590E80F10E047BDE80050CCF8000061
:10324000334B93E80600914208BF70471A6041B9BA
:103250001EF0100F2CD12F4B186820F001001860C1
:1032600026E0ACF1200C1EF0100F08BFACF1400CB2
:10327000C1F838C081F822E006B4084605F01CFF0A
:1032800006BC50B90C46012001F071FE204B5A6873
:103290001A60002194F922E0DAE791F922E0D1F8EE
:1032A00038C01EF0100F08BFACEC108A8CE8F00F8D
:1032B0001400A06B216B81F30B8894F922E01EF0BF
:1032C000100F08BFB0EC108AB0E8F00F80F3098847
:1032D0007047114A13689942FAD801B552F821C0D3
:1032E0000FC8E047BDE80050CCF80000704701B5BA
:1032F00010F0C2FBBDE80140EFF3098CA0E701B577
:1033000010F0C6FBBDE80140EFF3098C98E7000020
:103310001800002034EF00E0E04A218082B0EFF393
:1033200005830193019B002B14BF01230023DBB213
:10333000184602B0704782B0EFF310830193019BEF
:10334000002B05D1EFF311830093009B002B01D0DC
:10335000012300E0002303F00103DBB2184602B0B2
:10336000704700B585B00190019B002B06D16FF02E
:10337000030000F058FF6FF0030314E001991320DD
:1033800005F068FE0346002B05D0019800F05AFFB7
:103390000023039306E04FF0FF3000F044FF4FF0AE
:1033A000FF330393039B184605B05DF804FB00B59B
:1033B00085B00190154BDB68019AD31A0193019BEC
:1033C000002B02D0019B002B06DA6FF0030000F007
:1033D0002AFF6FF0030314E00199132005F03AFE71
:1033E0000346002B05D0019800F031FF0023039322
:1033F00006E04FF0FF3000F016FF4FF0FF3303936D
:10340000039B184605B05DF804FB00BF04000020D4
:1034100000B585B00190019800F00AFFFFF77EFF2C
:103420000346002B04D1FFF786FF0346002B07D08D
:103430006FF0050000F0F7FE6FF00503039307E05F
:10344000019B02930298054B9C4600DF03460393C1
:10345000039B184605B05DF804FB00BF931E0000F7
:1034600000B585B00190019800F0E7FEFFF756FF28
:103470000346002B04D1FFF75EFF0346002B07D065
:103480006FF0050000F0CFFE6FF00503039307E037
:10349000019B02930298054B9C4600DF0346039371
:1034A000039B184605B05DF804FB00BFDF1E00005B
:1034B00082B0EFF305830193019B002B14BF01231E
:1034C0000023DBB2184602B0704782B0EFF31083DE
:1034D0000193019B002B05D1EFF311830093009B17
:1034E000002B01D0012300E0002303F00103DBB235
:1034F000184602B0704710B483B001900091019B50
:10350000009A53E8000F40EA020143E8001404B1B6
:10351000F7E70C462346184603B05DF8044B7047A6
:1035200010B483B001900091019B009A53E8001FF2
:1035300021EA020043E8000404B1F7E70C46234601
:10354000184603B05DF8044B704710B483B0019087
:103550000091019B009A53E8001F01EA020090428B
:1035600003D0BFF32F8F002105E021EA020043E8DA
:10357000000404B1EFE70C462346184603B05DF89B
:10358000044B704710B483B001900091019B009AE6
:1035900053E8001F114203D1BFF32F8F002105E034
:1035A00021EA020043E8000404B1F1E70C46234697
:1035B000184603B05DF8044B704782B00190019B40
:1035C000184602B0704782B00190019B184602B0C5
:1035D0007047024B5B691846704700BF040000202B
:1035E00000B585B001900091019B0C3300991846FD
:1035F000FFF781FF0390039B184605B05DF804FBBD
:1036000000B585B001900091019B0C3300991846DC
:10361000FFF786FF0390039B184605B05DF804FB97
:1036200000B587B0039002910192019B03F0020361
:10363000002B14D1019B03F00103002B07D0039B47
:103640000C3302991846FFF780FF059021E0039B99
:103650000C3302991846FFF795FF059019E0039B7C
:10366000DB680593019B03F00103002B05D0059A4D
:10367000029B1340029A9A4209D1019B03F0010375
:10368000002B06D1059A029B1340002B01D1002389
:103690000593059B184607B05DF804FB82B00190C6
:1036A000019B002B01D1002300E00123184602B04A
:1036B000704700B583B00190019B00221A70019BF6
:1036C0009B7803F00103002B13D00D4BD3F89030FF
:1036D000002B07D00A4BD3F890300199184602F01E
:1036E000EAF806E0064BD3F880300199184601F05D
:1036F0008DFF019800F05AFE00BF03B05DF804FB97
:103700000400002000B587B00190019B9B680593E1
:1037100023E0059B9B680493059B596A059B93F8DE
:1037200023301A460198FFF77BFF0390039B002B81
:1037300011D0059805F015FA00220399059805F0B7
:1037400065FC059B596A059B93F823301A46039B39
:10375000019800F017FE049B0593059B002BD8D120
:1037600000BF00BF07B05DF804FB00B587B0019053
:10377000019B002B36D0019B1B680393019B5B6868
:103780000293019B9B680593029B03F48013002B1B
:1037900006D06FF00601002000F0AAFD00236BE0C8
:1037A000059B002B13D00598FFF778FF034683F0A5
:1037B0000103DBB2002B03D1019BDB68102B15D07A
:1037C0006FF00901002000F093FD002354E0019BFD
:1037D000DB68002B0AD06FF00901002000F088FDA3
:1037E000002349E00023039300230593059B002B4E
:1037F00019D1234BD3F89030002B07D0204BD3F8AE
:103800009030184602F034F8059008E01C4BD3F8CD
:10381000803001221021184601F05EFE0590012340
:103820008DF8133002E000238DF81330059B002B38
:103830001CD0059BF3221A70059B9DF813209A70EB
:10384000059B0022DA70059B039A5A60059B0022B3
:103850009A60059B0022DA60094B0A4A5A66059B6A
:103860005B681946059800F04EFD04E06FF0040116
:10387000002000F03DFD059B184607B05DF804FBF5
:10388000040000203522000000B585B001900198A9
:10389000FFF793FE03900398FFF700FF034683F0C2
:1038A0000103DBB2002B03D1039B1B78F32B05D064
:1038B0000021039800F02DFD002307E0039B5B68C7
:1038C0001946039800F025FD039B5B68184605B078
:1038D0005DF804FB00B589B0019000910198FFF7F5
:1038E0006CFE05900598FFF7D9FE034683F00103AF
:1038F000DBB2002B06D1059B1B78F32B02D1009B7A
:10390000002B07DA6FF00301059800F0F1FC6FF06F
:10391000030347E000990598FFF762FE0690059BB8
:103920009B68079333E0079B9B680493079B596A46
:10393000079B93F823301A460598FFF771FE039012
:10394000039B002B21D0079B93F8233003F0020345
:10395000002B06D1079B5B6ADB43039A1340069357
:1039600001E0039B0693079805F0FBF800220399FA
:10397000079805F04BFB079B596A079B93F8233088
:103980001A46039B059800F0FDFC049B0793079BD8
:10399000002BC8D1002005F0F3FA0699059800F035
:1039A000C4FC069B184609B05DF804FB00B585B061
:1039B000019000910198FFF700FE03900398FFF734
:1039C0006DFE034683F00103DBB2002B06D1039B9F
:1039D0001B78F32B02D1009B002B07DA6FF0030159
:1039E000039800F085FC6FF0030309E00099039849
:1039F000FFF706FE02900299039800F0A2FC029BDA
:103A0000184605B05DF804FB00B585B0019001983B
:103A1000FFF7D3FD03900398FFF740FE034683F0C2
:103A20000103DBB2002B03D1039B1B78F32B05D0E2
:103A30000021039800F08BFC002307E0039BDB6868
:103A40001946039800F083FC039BDB68184605B019
:103A50005DF804FB00B589B00390029101920093D8
:103A60000398FFF7AAFD06900698FFF717FE034696
:103A700083F00103DBB2002B06D1069B1B78F32BEE
:103A800002D1029B002B07DA6FF00301069800F0C9
:103A90002FFC6FF0030343E0019A02990698FFF7A9
:103AA000BFFD0790079B002B06D0079B019A029948
:103AB000069800F067FC32E0009B002B27D0009BAB
:103AC000019A0299069800F050FC0099432005F0F5
:103AD000C1FA0346002B13D0FFF77BFD0590069833
:103AE000FFF771FD03460599184604F0BAFF059BE0
:103AF000029A5A62019BDAB2059B83F8232002E006
:103B0000069800F03AFC6FF00103079307E0019A72
:103B10000299069800F03EFC6FF002030793079BA2
:103B2000184609B05DF804FB00B585B00190019816
:103B3000FFF743FD03900398FFF7B0FD034683F0C2
:103B40000103DBB2002B03D1039B1B78F32B07D0BF
:103B50006FF00301039800F0CBFB6FF003031CE050
:103B6000039B9B68002B14D00398FFF72CFD0346A2
:103B7000184604F0A8FF029000226FF0020102989C
:103B800005F044FA039B9B68002BEDD1002005F063
:103B9000F7F90398FFF78DFD0023184605B05DF88F
:103BA00004FB00B585B0019000910198FFF705FD79
:103BB00003900398FFF772FD034683F00103DBB225
:103BC000002B06D1039B1B78F32B02D1009B002B0B
:103BD00007DA6FF00301039800F08AFB6FF003032C
:103BE00010E000990398FFF7FBFC02900398FFF7A1
:103BF000EAFC034618460FF02FFF0299039800F0E5
:103C000094FB029B184605B05DF804FB00B587B035
:103C100003900291019200930398FFF7CEFC049069
:103C20000498FFF73BFD034683F00103DBB2002B52
:103C300009D1049B1B78F32B05D1009B002B02D1EB
:103C4000029B002B07DA6FF00301049800F050FB91
:103C50006FF0030318E0019A02990498FFF7E0FC63
:103C60000590059B002B06D0059B019A02990498AC
:103C700000F088FB07E0019A0299049800F08AFBA3
:103C80006FF002030593059B184607B05DF804FB2F
:103C900000B585B00190019800F030FBFFF708FCFB
:103CA0000346002B04D1FFF710FC0346002B07D07E
:103CB0006FF00501002000F01BFB0023039308E0D8
:103CC000019B0293029B1846044B9C4600DF03466F
:103CD0000393039B184605B05DF804FB9B2200008C
:103CE00000B585B00190FFF7E3FB0346002B04D13C
:103CF000FFF7EBFB0346002B04D00198FFF7C4FD50
:103D0000039008E0019B0293029B1846044B9C46DB
:103D100000DF03460393039B184605B05DF804FBE0
:103D2000B923000000B587B0019000910099019877
:103D300000F0F5FAFFF7BCFB0346002B04D1FFF7B8
:103D4000C4FB0346002B05D000990198FFF729FF1B
:103D500005900BE0019B0493009B0393049B184682
:103D60000399054B9C4600DF03460593059B1846C7
:103D700007B05DF804FB00BF0524000000B587B064
:103D8000019000910099019800F0D5FAFFF790FB9F
:103D90000346002B04D1FFF798FB0346002B05D008
:103DA00000990198FFF702FE05900BE0019B049338
:103DB000009B0393049B18460399054B9C4600DF28
:103DC00003460593059B184607B05DF804FB00BF4A
:103DD000DD24000000B585B00190FFF769FB0346C4
:103DE000002B04D1FFF771FB0346002B04D0019890
:103DF000FFF70AFE039008E0019B0293029B18461E
:103E0000044B9C4600DF03460393039B184605B012
:103E10005DF804FB3925000010B58AB003900291CB
:103E200001920093009B019A0299039800F095FA81
:103E3000FFF73EFB0346002B04D1FFF746FB03468A
:103E4000002B07D0009B019A02990398FFF7DEFE32
:103E5000099011E0039B0893029B0793019B069333
:103E6000009B0593089B18460799069A059B044CEE
:103E7000A44600DF03460993099B18460AB010BD0B
:103E80008525000000B585B00190019800F089FA01
:103E9000FFF70EFB0346002B04D1FFF716FB03468A
:103EA000002B08D06FF00501019800F021FA6FF0A7
:103EB0000503039308E0019B0293029B1846054B00
:103EC0009C4600DF03460393039B184605B05DF84C
:103ED00004FB00BF5926000084B0039002910192B8
:103EE00000BF04B0704784B0039002910192009328
:103EF00000BF04B0704784B003900291019200BFEC
:103F000004B0704784B0039002910192009300BF07
:103F100004B0704782B00190009100BF02B07047BA
:103F200084B003900291019200BF04B0704782B048
:103F3000019000BF02B0704700BF704700BF7047DC
:103F400084B003900291019200BF04B0704784B026
:103F500003900291019200BF04B0704782B00190BB
:103F600000BF02B0704700BF704700BF704700BF7E
:103F7000704782B0019000BF02B0704700BF704729
:103F800082B0019000BF02B0704782B0019000BFC4
:103F900002B0704782B0019000BF02B0704700BF0E
:103FA000704782B0019000BF02B0704782B00190AC
:103FB00000BF02B0704700BF704782B0019000BFE1
:103FC00002B0704700BF704782B0019000BF02B0DE
:103FD000704782B0019000BF02B0704782B001907C
:103FE00000BF02B0704782B0019000BF02B07047BE
:103FF00082B00190009100BF02B0704782B0019082
:10400000009100BF02B0704782B00190009100BFE4
:1040100002B0704784B003900291019200BF04B0D7
:10402000704784B003900291019200BF04B07047C2
:1040300082B00190009100BF02B0704782B0019041
:10404000009100BF02B0704782B00190009100BFA4
:1040500002B0704782B0019000BF02B0704782B0DA
:104060000190009100BF02B0704782B001900091B2
:1040700000BF02B0704782B00190009100BF02B053
:10408000704782B00190009100BF02B0704782B0CB
:104090000190009100BF02B0704782B00190009182
:1040A00000BF02B0704700BF704782B0019000BFF0
:1040B00002B0704782B0019000BF02B0704782B07A
:1040C000019000BF02B0704782B0019000BF02B003
:1040D000704782B0019000BF02B0704782B001907B
:1040E00000BF02B0704782B0019000BF02B07047BD
:1040F00082B0019000BF02B0704782B0019000BF53
:1041000002B0704782B00190009100BF02B07047CA
:1041100082B00190009100BF02B0704782B0019060
:1041200000BF02B0704782B0019000BF02B070477C
:1041300000BF704782B0019000BF02B0704782B0EC
:10414000019000BF02B0704782B0019000BF02B082
:10415000704700BF704700BF704700BF704782B014
:10416000019000BF02B0704784B0039002910192A9
:1041700000BF04B0704782B00190009100BF02B050
:10418000704782B00190009100BF02B0704782B0CA
:10419000019000BF02B0704782B0019000BF02B032
:1041A000704782B00190009100BF02B0704782B0AA
:1041B0000190009100BF02B0704782B00190009161
:1041C00000BF02B0704782B0019000BF02B07047DC
:1041D00082B0019000BF02B0704782B0019000BF72
:1041E00002B0704784B003900291019200BF04B006
:1041F000704784B003900291019200BF04B07047F1
:1042000082B0019000BF02B0704784B00390029169
:104210000192009300BF04B0704782B001900091FA
:1042200000BF02B0704782B0019000BF02B070477B
:1042300082B0019000BF02B0704782B0019000BF11
:1042400002B0704782B0019000BF02B0704782B0E8
:10425000019000BF02B0704782B0019000BF02B071
:10426000704782B00190009100BF02B0704782B0E9
:104270000190009100BF02B0704784B0039001929A
:1042800000930B468DF80B3000BF04B0704782B02E
:104290000190009100BF02B0704782B00190009180
:1042A00000BF02B0704782B00190009100BF02B021
:1042B000704782B0019000BF02B0704782B0019099
:1042C00000BF02B0704782B0019000BF02B07047DB
:1042D00082B00190009100BF02B0704782B001909F
:1042E00000BF02B0704782B0019000BF02B07047BB
:1042F00082B00190009100BF02B0704782B001907F
:1043000000BF02B0704782B00190009100BF02B0C0
:10431000704782B00190009100BF02B0704782B038
:104320000190009100BF02B0704782B001900091EF
:1043300000BF02B0704782B00190009100BF02B090
:10434000704782B00190009100BF02B0704782B008
:104350000190009100BF02B0704784B003900291B9
:104360000192009300BF04B0704784B003900291A3
:104370000192009300BF04B0704782B0019000BF6B
:1043800002B0704784B0039002910192009300BF85
:1043900004B0704784B003900291019200BF04B052
:1043A000704782B0019000BF02B0704782B00190A8
:1043B00000BF02B0704782B00190009100BF02B010
:1043C000704782B0019000BF02B0704782B0019088
:1043D000009100BF02B0704782B00190009100BF11
:1043E00002B0704782B00190009100BF02B07047E8
:1043F00082B00190009100BF02B0704782B001907E
:1044000000BF02B0704782B00190009100BF02B0BF
:10441000704782B0019000BF02B0704782B0019037
:1044200000BF02B0704782B00190009100BF02B09F
:10443000704782B00190009100BF02B0704782B017
:10444000019000BF02B0704782B0019000BF02B07F
:10445000704782B00190009100BF02B0704784B0F5
:1044600003900291019200BF04B0704782B00190A6
:10447000009100BF02B0704782B00190009100BF70
:1044800002B0704782B00190009100BF02B0704747
:1044900082B00190009100BF02B0704782B00190DD
:1044A00000BF02B0704782B00190009100BF02B01F
:1044B000704782B0019000BF02B0704782B0019097
:1044C00000BF02B0704782B00190009100BF02B0FF
:1044D000704782B00190009100BF02B0704782B077
:1044E000019000BF02B0704782B0019000BF02B0DF
:1044F000704782B00190009100BF02B0704784B055
:1045000003900291019200BF04B0704782B0019005
:10451000009100BF02B0704782B00190009100BFCF
:1045200002B0704782B00190009100BF02B07047A6
:1045300082B00190009100BF02B0704782B001903C
:1045400000BF02B0704782B00190009100BF02B07E
:10455000704782B0019000BF02B0704782B00190F6
:10456000009100BF02B0704782B00190009100BF7F
:1045700002B0704782B00190009100BF02B0704756
:1045800082B00190009100BF02B0704782B00190EC
:10459000009100BF02B0704782B00190009100BF4F
:1045A00002B0704782B00190009100BF02B0704726
:1045B00082B0019000BF02B0704782B0019000BF8E
:1045C00002B0704782B00190009100BF02B0704706
:1045D00084B003900291019200BF04B0704782B092
:1045E0000190009100BF02B0704782B0019000912D
:1045F00000BF02B0704784B003900291009313464D
:104600008DF8073000BF04B0704784B0039002916A
:10461000019200BF04B0704782B0019000BF02B0A9
:10462000704782B00190009100BF02B0704782B025
:104630000190009100BF02B0704782B001900091DC
:1046400000BF02B0704784B00390029101920093C2
:1046500000BF04B0704784B003900291019200BF84
:1046600004B0704782B0019000BF02B0704782B0C2
:104670000190009100BF02B0704782B0019000919C
:1046800000BF02B0704782B00190009100BF02B03D
:10469000704782B00190009100BF02B0704782B0B5
:1046A0000190009100BF02B0704782B0019000916C
:1046B00000BF02B0704782B0019000BF02B07047E7
:1046C00082B0019000BF02B0704782B0019000BF7D
:1046D00002B0704782B0019000BF02B07047000086
:1046E000034BDB681B0A03F007031846704700BF43
:1046F00000ED00E082B0EFF314830193019B03F01F
:104700000103002B0CBF01230023DBB2184602B0CB
:10471000704782B0EFF305830193019B002B14BF18
:1047200001230023DBB2184602B0704782B0EFF3DA
:1047300005830093009B0193019B0A2B04DC019BE2
:10474000022B01DD012300E0002303F00103DBB2B3
:10475000184602B0704782B0EFF305830193019BC6
:104760000B2B0CBF01230023DBB2184602B07047AD
:1047700082B0EFF305830193019B0E2B0CBF012345
:104780000023DBB2184602B0704784B00190EFF30B
:1047900005830393039B1A46019B10339A420CBF77
:1047A00001230023DBB2184604B0704782B0EFF358
:1047B00010830193019B002B05D1EFF3118300932C
:1047C000009B002B01D0012300E0002303F0010334
:1047D000DBB2184602B0704700B585B0154BFF221A
:1047E00083F82220134B93F82230DBB263F0FF03EF
:1047F000DB430193019B002B01D1202303E0019BAC
:10480000B3FA83F3DBB2C3F120030393FFF768FF2E
:104810000290029A039B9A4202D3029B01330393B4
:10482000FE22039B9A40034BD2B2DA7700BF05B059
:104830005DF804FB00ED00E0044B5B681B0EDBB28F
:1048400003F01003DBB21846704700BF00ED00E034
:10485000024B4FF000625A6000BF704700ED00E06D
:10486000024B4FF080525A6000BF704700ED00E0ED
:10487000014B1B7A184670470400002008B5FEF76C
:1048800077FC094B01225A72BFF34F8F00BFFFF72D
:10489000D3FF0346002B04D0FFF7DAFF024B0122BF
:1048A0009A7200BF08BD00BF0400002008B5094B84
:1048B00000225A72BFF34F8F00BF064B9B7A002B2A
:1048C00004D0044B00229A72FFF7CAFFFEF736FCB1
:1048D00000BF08BD0400002084B04FF0FF330393F5
:1048E0000D4BDB6A0293029B002B02D0029BDB691B
:1048F0000393094B5B6C0193019B002B07D0019B39
:104900001B69039A9A4202D9019B1B690393039B7B
:10491000184604B0704700BF0400002008B5374BAC
:104920001B7A012B03D1FFF709FB002327E1334B4F
:104930001B7A002B06D04FF0FF30FFF7F8FA4FF04C
:10494000FF331CE19C2200212D480EF06FF82D4B07
:10495000DB682A4AD3652B4B1A8A284BA3F85420CC
:10496000284B9B68254A1364264BDB6A254A126B49
:104970001146184600F068FD0346002B04D0214B79
:10498000DB6A1E4AC2F880301E4B5B691D4A926981
:104990001146184600F058FD0346002B04D0194B71
:1049A0005B69164A536704E0144BD3F88030134A0E
:1049B0005367144BDB69134A126A1146184600F01C
:1049C00043FD0346002B04D00E4BDB690B4A936773
:1049D00004E00A4BD3F88030084A9367094B5B6ABE
:1049E000084A926A1146184600F02EFD0346002B35
:1049F0000AD0044B5B6A014AD3670AE00400002036
:104A00000C000020D84921805E4BD3F880305D4AED
:104A1000D3675D4B5B6B002B11D05B4B586B5A4BD4
:104A20005B6B1968584B5B6B9A68574B5B6BDB6829
:104A300000F0D3FE544B5B6B524AC2F88430524BA9
:104A40009B6B002B11D0504B986B4F4B9B6B196895
:104A50004D4B9B6B9A684C4B9B6BDB6800F0BDFE2B
:104A6000494B9B6B474AC2F88830474BDB6B002BA6
:104A700011D0454BD86B444BDB6B1968424BDB6B59
:104A80009A68414BDB6BDB6800F0A7FE3E4BDB6BAB
:104A90003C4AC2F88C303C4B1B6C002B11D03A4B7B
:104AA000186C394B1B6C1968374B1B6C9A68364B6A
:104AB0001B6CDB6800F091FE334B1B6C314AC2F873
:104AC0009030314B5B6C002B11D02F4B586C2E4B20
:104AD0005B6C19682C4B5B6C9A682B4B5B6CDB68CE
:104AE00000F07BFE284B5B6C264AC2F89430264BC4
:104AF0009B6C002B11D0244B986C234B9B6C19683A
:104B0000214B9B6C9A68204B9B6CDB6800F065FE28
:104B10001D4B9B6C1B4AC2F898301B4BDB6C002B67
:104B200011D0194BD86C184BDB6C1968164BDB6C29
:104B30009A68154BDB6CDB6800F04FFE124BDB6CA8
:104B4000104AC2F89C30104B1B6D002B11D00E4B3D
:104B5000186D0D4B1B6D19680B4B1B6D9A680A4B3A
:104B60001B6DDB6800F039FE074B1B6D054AC2F870
:104B7000A030044B01221A72FFF7E0F90023184617
:104B800008BD00BF04000020D849218000B587B0CF
:104B9000039002910192039B002B05D0039B114AC5
:104BA0001A60039B104A5A60029B002B0FD0019B96
:104BB000002B0CD0019B0B2B02D90B23059301E09A
:104BC000019B0593059A094902980EF045FA019A4E
:104BD00002990398FFF7BBF90023184607B05DF868
:104BE00004FB00BF30A231011150FC02B449218006
:104BF00000B583B0FFF73CFE01900198FFF7AEF9D6
:104C0000019B184603B05DF804FB00B583B0224B4E
:104C10001B7A012B06D06FF00700FFF788F94FF0E1
:104C2000FF3334E005F028FB034683F00103DBB2D9
:104C3000002B06D04FF0FF30FFF779F94FF0FF332C
:104C400025E0FFF7C9FD154B5B6815491846FEF7CF
:104C500041FA0346002B06D04FF0FF30FFF767F90B
:104C60004FF0FF3313E0FEF7A5FA03460A4A13613B
:104C7000FEF764FA0B4803F026FF0190019804F058
:104C800061F9054B02221A72FFF76FF900231846EB
:104C900003B05DF804FB00BF04000020D849218068
:104CA0002F1E00002000002000B583B0114B1B7A9E
:104CB000022B02D0032B09D00EE00E4B03221A72F6
:104CC0000020FFF756F9002301930DE00120FFF7C4
:104CD00050F90123019307E04FF0FF30FFF727F968
:104CE0004FF0FF33019300BF019B184603B05DF8FE
:104CF00004FB00BF0400002000B583B0114B1B7AF9
:104D0000022B02D0032B06D00EE00020FFF738F96B
:104D10000023019310E00B4B02221A720120FFF7CF
:104D20002FF90123019307E04FF0FF30FFF7FFF861
:104D30004FF0FF33019300BF019B184603B05DF8AD
:104D400004FB00BF0400002000B585B001901A4BA1
:104D50001B7A023B012B21D8019B002B03D0019B26
:104D6000012B09D011E0144B02221A720020FFF728
:104D700011F90023039310E00F4B03221A72012054
:104D8000FFF708F90123039307E04FF0FF30FFF727
:104D9000CEF84FF0FF33039300BF07E04FF0FF3032
:104DA000FFF7C5F84FF0FF33039300BF039B18468E
:104DB00005B05DF804FB00BF0400002000B583B01F
:104DC0000C4B1B7A022B05D06FF00800FFF7AFF8F1
:104DD00000230BE0FFF752FD064B04221A72FFF787
:104DE0007BFD01900198FFF7DCF8019B184603B0AA
:104DF0005DF804FB0400002000B589B001902C4B45
:104E00001B7A042B02D0FFF7D6F84DE0FFF764FDC4
:104E10000690019A069B9A4203D3069B013B079397
:104E200001E0019B0793224BDB6A0593059B002B56
:104E300005D0059BDA69079BD21A059BDA611C4BEA
:104E40005B6C0493049B002B05D0049B1A69079BA1
:104E5000D21A049B1A61164BDB68019A1344039320
:104E6000134BDA68079B1344114AD3600DE0104BD3
:104E7000DB6801330E4AD36003F072FF0C4B1B6DED
:104E8000002B02D00A4B1B6D9847094BDB68039A35
:104E90009A42ECD1064B02221A72002004F070F8FC
:104EA000FFF704FDFFF787F809B05DF804FB00BFCA
:104EB0000400002082B001904FF0FF33184602B08A
:104EC000704782B0019000914FF0FF33184602B056
:104ED000704708B5044BDB681846FFF775F8024BBE
:104EE000DB68184608BD00BF0400002008B5044B6D
:104EF0005B681846FFF76DF8014B5B68184608BD04
:104F0000D849218000B583B0104BDB680193FEF7D0
:104F100063F90090FEF776F90346002B05D0FEF703
:104F20005BF90090019B01330193FEF74DF90246B6
:104F3000019B02FB03F3009A134400930098FFF7D0
:104F40004DF8009B184603B05DF804FB04000020F8
:104F500000B583B0FEF732F901900198FFF743F8EE
:104F6000019B184603B05DF804FB00BF704700B515
:104F700083B00190009100990198FFF739F80099EA
:104F8000019806F0C0FA0346184603B05DF804FB2A
:104F900000B583B0FFF7E9FFFEF7CEFFFFF7B9FBDF
:104FA0000346002B04D1FFF701FC0346002B07D07A
:104FB0006FF00500FEF7BBFF6FF00503019304E0FF
:104FC000044B9C4600DF03460193019B184603B047
:104FD0005DF804FB4D34000000B589B003900291E8
:104FE0000192019A02990398FEF7AAFFFFF791FB3D
:104FF0000346002B09D1FFF7D9FB0346002B04D150
:10500000FFF778FB0346002B06D0019A029903981C
:10501000FFF7BCFD07900FE0039B0693029B0593EF
:10502000019B0493069B1846059B1946049A054B61
:105030009C4600DF03460793079B184609B05DF8BE
:1050400004FB00BFBD36000000B583B0FFF761FB75
:105050000346002B09D1FFF7A9FB0346002B04D11F
:10506000FFF748FB0346002B03D0FFF7C1FD01907B
:1050700004E0054B9C4600DF03460193019B184664
:1050800003B05DF804FB00BF2137000000B583B01A
:10509000FEF769FFFFF73DFB0346002B04D1FFF746
:1050A00085FB0346002B07D06FF00500FEF73FFF9E
:1050B0006FF00503019304E0044B9C4600DF0346B8
:1050C0000193019B184603B05DF804FB3B370000D9
:1050D00000B583B0FEF74BFFFFF71BFB0346002B29
:1050E00004D1FFF763FB0346002B07D06FF00500E8
:1050F000FEF71DFF6FF00503019304E0044B9C468F
:1051000000DF03460193019B184603B05DF804FBE2
:10511000D937000000B583B0FEF730FFFFF7F9FA8A
:105120000346002B04D1FFF741FB0346002B07D0B9
:105130006FF00500FEF7FBFE6FF00503019304E03E
:10514000044B9C4600DF03460193019B184603B0C5
:105150005DF804FB2938000000B585B00190019886
:10516000FEF713FFFFF7D5FA0346002B04D1FFF734
:105170001DFB0346002B24D0FFF7D8FA0346002B73
:1051800011D1FFF7E8FA0346002B0CD1FFF7F0FA34
:105190000346002B07D1124B1B691846FFF7F5FA9F
:1051A0000346002B05D00198FFF7CEFD039000BF0A
:1051B00010E06FF00500FEF7BAFE6FF005030393F1
:1051C00008E0019B0293029B1846064B9C4600DFB9
:1051D00003460393039B184605B05DF804FB00BF2C
:1051E000040000207938000000B583B0FEF7D7FE38
:1051F000FFF78FFA0346002B04D1FFF7D7FA0346D7
:10520000002B06D06FF00500FEF791FE00230193FE
:1052100004E0054B9C4600DF03460193019B1846C2
:1052200003B05DF804FB00BFED38000000B585B0A9
:1052300001900198FEF7BAFEFFF76BFA0346002BC8
:1052400004D1FFF7B3FA0346002B04D06FF005003A
:10525000FEF76DFE05E0019B03930398034B9C460C
:1052600000DF00BF05B05DF804FB00BF2939000076
:1052700000B585B001900198FEF79FFEFFF749FA4F
:105280000346002B04D1FFF791FA0346002B07D009
:105290006FF00500FEF74BFE6FF00503039307E088
:1052A000019B02930298054B9C4600DF0346039343
:1052B000039B184605B05DF804FB00BFE53900000C
:1052C00000B587B00190009100990198FEF796FE15
:1052D000FFF71FFA0346002B04D1FFF767FA0346D6
:1052E000002B15D0124B1B691846FFF74EFA0346E8
:1052F000002B05D000990198FFF7E3FD059012E01F
:105300006FF00500FEF713FE6FF0050305930AE04A
:10531000019B0493009B039304980399054B9C46BF
:1053200000DF03460593059B184607B05DF804FBB4
:1053300004000020F339000000B583B0FFF7E9F95D
:105340000346002B04D1FFF731FA0346002B03D0AC
:10535000FFF7BFFD019004E0044B9C4600DF0346CD
:105360000193019B184603B05DF804FB033A00006B
:1053700000B583B0FFF7CDF90346002B04D1FFF74A
:1053800015FA0346002B03D0FFF7B0FD019004E0AF
:10539000044B9C4600DF03460193019B184603B073
:1053A0005DF804FB1D3A000000B583B0FFF7B1F9CA
:1053B0000346002B04D1FFF7F9F90346002B03D075
:1053C000FFF7A0FD019004E0044B9C4600DF03467C
:1053D0000193019B184603B05DF804FB353A0000C9
:1053E00000B583B0FFF795F90346002B04D1FFF712
:1053F000DDF90346002B03D0FFF7AAFD019004E07E
:10540000044B9C4600DF03460193019B184603B002
:105410005DF804FB813A000008B5FFF7B9FD00BF55
:1054200008BD82B00190019B184602B0704784B05D
:1054300001900091019B009A13440393039B0293F4
:10544000029B184604B0704700B585B001900091EA
:10545000019B002B0CD0019B03F00703002B07D10D
:10546000009B03F00703002B02D1009B172B06D8EB
:10547000002200990198FEF72FFD002328E00198F3
:10548000FFF7CFFF0390039B009A1A60039B102243
:105490005A6008210198FFF7CAFF0290009B083B61
:1054A00019460198FFF7C3FF0246029B1A60029B50
:1054B0001B6800221A60029B1B6810225A60029B24
:1054C00000225A60012200990198FEF705FD012390
:1054D000184605B05DF804FB10B58AB00390029140
:1054E0000192039B002B05D0029B002B02D0019B55
:1054F000032B07D90023019A02990398FEF7F3FCC6
:10550000002380E0029B08330793079B073323F0B7
:105510000703079308210398FFF789FF0890089B6A
:105520001B681A46089BD31A0693089B5B6823F0F6
:105530000303069AD31A0693069A079B9A420ED241
:10554000089B1B680893089B1B68002BE7D100236E
:10555000019A02990398FEF7C6FC002353E000BFAE
:105560000398FFF75EFF03465968079A0A445A609A
:105570000398FFF756FF03461B68083B194603983C
:10558000FFF755FF0590059B5C680398FFF749FFFF
:1055900003465B689C4206D20398FFF742FF03462E
:1055A0005A68059B5A60089B5B68002B0AD1079AD2
:1055B000019B1A43089B5A6008210898FFF737FFA0
:1055C000099019E0089B5B6823F0030319460898CB
:1055D000FFF72DFF0590089B1A68059B1A60079A34
:1055E000019B1A43059B5A60089B059A1A60082183
:1055F0000598FFF71CFF0990099B019A02990398EF
:10560000FEF771FC099B18460AB010BD00B587B0C3
:1056100001900091019B002B02D0009B002B06D132
:10562000002200990198FEF766FC00233EE000216D
:105630000098FFF7FCFE0390039B083B03930023B5
:10564000049308210198FFF7F2FE05900EE0059BF8
:105650000493059B1B680593059B002B06D1002234
:1056600000990198FEF747FC00231FE0059A039B71
:105670009A42ECD10198FFF7D4FE03465968059A87
:10568000526822F003028A1A5A60049B002B03D14D
:10569000059B00225A6003E0059B1A68049B1A6070
:1056A000012200990198FEF726FC0123184607B055
:1056B0005DF804FB82B0EFF305830193019B002B9F
:1056C00014BF01230023DBB2184602B0704782B03A
:1056D000EFF310830193019B002B05D1EFF31183AE
:1056E0000093009B002B01D0012300E0002303F076
:1056F0000103DBB2184602B0704710B483B00190CA
:10570000019B53E8002F511C43E8001000B1F8E75B
:1057100014462346184603B05DF8044B704710B496
:1057200083B00190019B53E8002F511E43E8001005
:1057300000B1F8E714462346184603B05DF8044B61
:10574000704710B483B00190019B53E8002F12B949
:10575000BFF32F8F04E0116843E8001000B1F4E7B5
:1057600014462346184603B05DF8044B704710B446
:1057700083B001900091019B009A19681160BFF3FA
:105780005F8F53E8001F10688842F6D143E8002479
:1057900004B1F2E700BF03B05DF8044B704782B07C
:1057A0000190019B184602B0704782B00190019BA6
:1057B000184602B07047024B5B691846704700BF3D
:1057C0000400002082B00190019B002B01D1002336
:1057D00000E00123184602B0704700B587B003907F
:1057E000029101920093039B002B08D0029B002B97
:1057F00005D0019B002B02D0009B002B01D1002380
:1058000032E0039B029A1A60039B00225A60039BBA
:10581000019A9A60039B009ADA60039B009A5A618E
:10582000029B019A02FB03F3009A1A44039B1A613C
:10583000009B019A02990398FEF764FB009B059375
:1058400008E0059A019B13440493059B049A1A608F
:10585000049B0593029B013B0293029B002BF0D11A
:10586000059B00221A600123184607B05DF804FB6F
:1058700000B585B00190019B002B05D100210020CF
:10588000FEF748FB002312E0019B14331846FFF794
:1058900058FF0390039B002B04D0019B0433184650
:1058A000FFF72BFF03990198FEF734FB039B184683
:1058B00005B05DF804FB00B583B001900091019B39
:1058C000002B09D0019BDB68009A9A4204D3019B0C
:1058D0001B69009A9A4208D36FF00302009901985D
:1058E000FEF71EFB6FF0030310E0019B14330099D9
:1058F0001846FFF73CFF019B04331846FFF70FFFE4
:10590000002200990198FEF70BFB0023184603B014
:105910005DF804FB00B583B00190019B00221A7072
:10592000019B9B7803F00203002B07D0144B9A6F66
:10593000019B9B6919461046FFF768FE019B9B7807
:1059400003F00103002B13D00D4BD3F89C30002B38
:1059500007D00B4BD3F89C3001991846FFF7ABFFEB
:1059600006E0074BD3F8803001991846FFF74EFE4A
:105970000198FEF722FE00BF03B05DF804FB00BFF4
:105980000400002000B585B00190019B9B68002BAE
:105990001AD0019B0C331846FFF76AFF0390039B54
:1059A000002B11D00198FFF700FF0346184603F0C3
:1059B0008AF80290039B00221946029803F026FB06
:1059C00003990198FEF7BFFD00BF05B05DF804FB29
:1059D00000B591B0039002910192039B002B1CD063
:1059E000029B002B19D0039B0593059B002B01D133
:1059F000202303E0059BB3FA83F3DBB21A46029B34
:105A00000693069B002B01D1202303E0069BB3FAEB
:105A100083F3DBB213441F2B06D86FF00301002081
:105A2000FEF767FD0023F2E0039B0B93029B033319
:105A300023F003030A930B9B0A9A02FB03F30993D7
:105A4000019B002B59D0019B1B680C93019B5B6849
:105A50000893019B9B680F93019B1B690E93019B0D
:105A60005B690793089B03F48013002B06D06FF04B
:105A700006010020FEF73DFD0023C8E00F9B002B30
:105A800013D00F98FFF79EFE034683F00103DBB2AD
:105A9000002B03D1019BDB68242B11D06FF009018F
:105AA0000020FEF726FD0023B1E0019BDB68002B00
:105AB00006D06FF009010020FEF71BFD0023A6E0D1
:105AC0000E9B002B0FD00E9B03F00303002B03D182
:105AD000079A099B9A4216D26FF00A010020FEF73E
:105AE00008FD002393E0079B002B0CD06FF00A0108
:105AF0000020FEF7FEFC002389E000230C93002326
:105B00000F9300230E930F9B002B19D1424BD3F818
:105B10009C30002B07D0404BD3F89C301846FFF741
:105B2000A7FE0F9008E03C4BD3F8803001222421DF
:105B30001846FFF7D1FC0F9001238DF8373002E0B3
:105B400000238DF837300F9B002B35D00E9B002B98
:105B500032D1314B9B6F002209991846FFF7BCFCEC
:105B60000E900E9B002B1CD19DF8373003F00103E3
:105B7000002B13D0284BD3F89C30002B07D0264B9A
:105B8000D3F89C300F991846FFF795FE06E0224B9C
:105B9000D3F880300F991846FFF738FD00230F9394
:105BA00004E0099A00210E980CF040FF9DF8373070
:105BB00043F002038DF837300F9B002B21D00F9B51
:105BC000F7221A700F9B9DF837209A700F9B0022C6
:105BD000DA700F9B0C9A5A600F9B00229A600F9B01
:105BE00003F10C000E9B0A9A0B99FFF7F6FD0A4B86
:105BF0000A4ADA660F9B5B6819460F98FEF786FC27
:105C000004E06FF004010020FEF773FC0F9B1846C0
:105C100011B05DF804FB00BF04000020B544000093
:105C200000B585B001900198FFF7B9FD0390039886
:105C3000FFF7C8FD034683F00103DBB2002B03D15D
:105C4000039B1B78F72B05D000210398FEF764FC1B
:105C5000002307E0039B5B6819460398FEF75CFC92
:105C6000039B5B68184605B05DF804FB10B584B073
:105C7000019000910198FFF792FD03900398FFF7C0
:105C8000A1FD034683F00103DBB2002B03D1039B8C
:105C90001B78F72B06D06FF003010398FEF729FC61
:105CA00000232FE0039B0C331846FFF7E1FD029021
:105CB000029B002B04D002990398FEF744FC20E0DD
:105CC000009B002B1AD000990398FEF731FC009935
:105CD000732003F0BFF90346002B0BD00398FFF7A6
:105CE00064FD0446FFF767FD03461946204602F0AF
:105CF000B8FE06E00398FEF721FC02E00398FEF7E9
:105D000028FC029B184604B010BD00B587B0019076
:105D100000910198FFF743FD05900598FFF752FDAC
:105D2000034683F00103DBB2002B03D1059B1B78F4
:105D3000F72B07D06FF003010598FEF7DAFB6FF041
:105D4000030332E0059B0C3300991846FFF7B3FDBF
:105D50000490049B002B23D100990598FEF704FCC6
